:100000000C9446000C945D000C945D000C945D0013
:100010000C945D000C945D000C945D000C945D00EC
:100020000C945D000C945D000C945D000C945D00DC
:100030000C945D000C945D000C945D000C945D00CC
:100040000C945D000C945D000C945D000C945D00BC
:100050000C945D000C945D000C945D000C945D00AC
:100060000C945D000C945D000C945D000C945D009C
:100070000C945D000C945D000C945D000C945D008C
:100080000C945D000C945D000C945D0011241FBE67
:10009000CFEFD0E1DEBFCDBF11E0A0E0B1E0E2E301
:1000A000F4E000E00BBF02C007900D92A430B1074E
:1000B000D9F70E945F000C9417020C9400004F9235
:1000C0005F926F927F928F929F92AF92BF92CF92E8
:1000D000DF92EF92FF920F931F93CF93DF938FEFF7
:1000E0008ABB84BB11BA8FE187BBC0E0D0E000E0DF
:1000F00010E0DD24D394A8E05A2EF4E04F2EE2E085
:100100008E2E70E1772E60E2662E50E4A52E40E838
:10011000942E38EAE32E31E6F32E2AE0B22E9EE149
:10012000C92E8CC0DBBA0FC02130310511F48BBA57
:100130000FC02230310511F44BBA0FC02330310506
:1001400011F45BBA0FC02430310511F47BBA0FC033
:100150002530310511F46BBA0FC02630310511F48A
:10016000ABBA0AC02730310511F49BBA05C028305C
:10017000310511F41BBAD8BA40E050E080B38130A9
:1001800019F42115310581F180B3823019F4213041
:10019000310551F180B3843019F42230310521F159
:1001A00080B3883019F423303105F1F080B3803109
:1001B00019F424303105C1F080B3803219F42530B0
:1001C000310591F080B3803419F42630310561F0A7
:1001D00080B3803819F42730310531F086B3813887
:1001E00029F42830310511F4219609C0C70101977F
:1001F000F1F74F5F5F4F4F31510509F0BFCFCE018F
:100200006AE070E00E9429019B0184E0220F331F05
:100210008A95E1F7CE016AE070E00E942901820F21
:1002200085BB88B318BAC7010197F1F70C171D07F2
:1002300019F4C8BAE80102C0B8BA8E010E94AB0135
:1002400069E070E00E9429019C01009709F46ACFDF
:100250006BCF97FB092E07260AD077FD04D00CD070
:1002600006D000201AF4709561957F4F0895F6F737
:10027000909581959F4F0895AA1BBB1B51E107C024
:10028000AA1FBB1FA617B70710F0A61BB70B881F26
:10029000991F5A95A9F780959095BC01CD010895B5
:1002A000AF92BF92CF92DF92EF92FF920F931F9384
:1002B000CF93DF93EC01A880B980CA80DB80A114C2
:1002C000B104C104D10441F484E2A82E89EDB82E12
:1002D0008BE5C82E87E0D82EC601B5012DE133EF9E
:1002E00041E050E00E94DA0127EA31E440E050E0CA
:1002F0000E94BB017B018C01C601B5012DE133EFEA
:1003000041E050E00E94DA01CA01B9012CEE34EF5D
:100310004FEF5FEF0E94BB016E0D7F1D801F911F8D
:1003200097FF04C061507040804090486883798393
:100330008A839B839B013F77C901DF91CF911F91F6
:100340000F91FF90EF90DF90CF90BF90AF90089506
:100350000E945001089580E091E00E9450010895AC
:10036000A0E0B0E08093000190930101A09302010E
:10037000B09303010895629FD001739FF001829FA3
:10038000E00DF11D649FE00DF11D929FF00D839F24
:10039000F00D749FF00D659FF00D9927729FB00DC1
:1003A000E11DF91F639FB00DE11DF91FBD01CF01D4
:1003B0001124089597FB092E05260ED057FD04D071
:1003C00014D00AD0001C38F45095409530952195F2
:1003D0003F4F4F4F5F4F0895F6F79095809570957A
:1003E00061957F4F8F4F9F4F0895A1E21A2EAA1B50
:1003F000BB1BFD010DC0AA1FBB1FEE1FFF1FA217D5
:10040000B307E407F50720F0A21BB30BE40BF50BD1
:10041000661F771F881F991F1A9469F7609570955A
:10042000809590959B01AC01BD01CF010895F89492
:02043000FFCFFC
:0404320001000000C5
:00000001FF
